; device = mm-control

:100000000C94F9000C94EC0E0C94C50E0C949E0EFE
:100010000C94770E0C9421010C9421010C94500E39
:100020000C9421010C9421010C946B0F0C94DA0FA9
:100030000C9421010C9421010C9421010C942101B8
:100040000C9421010C9421010C9421010C942101A8
:100050000C9421010C9421010C9421010C94060EA6
:100060000C9421010C94390F0C94130F0C94210162
:100070000C9421010C9421010C9421010C94210178
:100080000C9478190C9421010C9421010C942101F9
:100090000C9421010C9421010C9421010C94210158
:1000A0000C9421010C9421010C9421016364696E6C
:1000B0006F70737578585B00070605040100080A25
:1000C0000B0C0D0973746172740A006F6B0A004B9C
:1000D000256400572564006F6B0A00522564006F89
:1000E0006B0A00452564006F6B0A00432564006FAE
:1000F0006B0A004625642025640025646F6B0A00A6
:1001000025646F6B0A0025646F6B0A006F6B0A0031
:100110005325640025646F6B0A0050256400582540
:1001200064006F6B0A00552564006F6B0A004D2553
:1001300064006F6B0A004C2564006F6B0A00542545
:1001400064006F6B0A006F6B0A00080B000202026A
:100150000100090400000102020000052400100152
:1001600005240101010424020605240600010705F7
:10017000810310004009040100020A000000070585
:100180000202400000070583024000000403090446
:1001900012010002EF020140992C0400000101024B
:1001A00003015072757361205265736561726368F3
:1001B0002028707275736133642E636F6D29004F50
:1001C000726967696E616C20507275736120693362
:1001D000204D4B33204D756C7469204D61746572F0
:1001E00069616C20322E3020757067726164650021
:1001F000C90D11241FBECFEFDAE0DEBFCDBF11E085
:10020000A0E0B1E0E8EAF1E402C005900D92A43567
:10021000B107D9F722E0A4E5B1E001C01D92AA3BE5
:10022000B207E1F710E0C9EFD0E004C02197FE016A
:100230000E945A20C83FD107C9F70E94FD110C94B3
:10024000D2200C9400008230910538F0880F991F5D
:10025000880F991F05970197F1F70895FC01809188
:10026000C401882311F13FB7F89482E08093E9003C
:100270002091F200822F90E01816190614F481E004
:1002800090E0882339F0289844E64093C3014091D8
:10029000F1004083222339F02091F200211103C0A4
:1002A0002BE62093E8003FBF08958FEF9FEF08955E
:1002B0002FB7F89483E08093E9009091E800892FAC
:1002C000807295FF04C09091F20080E4891B2FBFDB
:1002D00008953FB7F8948091BF019091C001A0911B
:1002E000C101B091C20126B5A89B05C02F3F19F0EE
:1002F0000196A11DB11D3FBFBA2FA92F982F8827A6
:10030000BC01CD01620F711D811D911D42E0660F80
:10031000771F881F991F4A95D1F708958F929F9252
:10032000AF92BF92CF92DF92EF92FF924B015C01AE
:100330000E9469016B017C010E9469016C197D09B1
:100340008E099F09683E734081059105A8F321E05D
:10035000821A9108A108B10888EEC80E83E0D81E61
:10036000E11CF11C81149104A104B10429F7FF9050
:10037000EF90DF90CF90BF90AF909F908F900895B7
:10038000AF92BF92CF92DF92EF92FF920F931F93A3
:10039000CF93DF936C017B018B01040F151FEB01E1
:1003A0005E01AE18BF08C017D10759F06991D60198
:1003B000ED91FC910190F081E02DC6010995892B0A
:1003C00079F7C501DF91CF911F910F91FF90EF90C9
:1003D000DF90CF90BF90AF9008950895FC01538DAA
:1003E000448D252F30E0842F90E0821B930B54170F
:1003F00010F0CF96089501970895FC01918D828D9C
:10040000981761F0A28DAE0FBF2FB11D5D968C9134
:10041000928D9F5F9F73928F90E008958FEF9FEF73
:100420000895FC01918D828D981731F0828DE80F2F
:10043000F11D858D90E008958FEF9FEF0895FC01E9
:10044000918D228D892F90E0805C9F4F821B9109B6
:100450008F7399270895FC01A48DA80FB92FB11DA2
:10046000A35ABF4F2C91848D90E001968F739927EA
:10047000848FA689B7892C93A089B1898C918064D7
:100480008C93938D848D981306C00288F389E02D98
:1004900080818F7D80830895EF92FF920F931F9349
:1004A000CF93DF93EC0181E0888F9B8D8C8D981327
:1004B00016C0E889F989808185FF11C0EE89FF891E
:1004C0006083E889F98980818064808381E090E09D
:1004D000DF91CF911F910F91FF90EF900895F62E2D
:1004E0000B8D10E00F5F1F4F0F731127E02E8C8DC7
:1004F0008E110CC00FB607FCFACFE889F98980810C
:1005000085FFF5CFCE010E942B02F1CFEB8DEC0FD2
:10051000FD2FF11DE35AFF4FF0820B8FEA89FB8913
:1005200080818062D2CFCF93DF93EC01888D8823C6
:10053000B9F0AA89BB89E889F9898C9185FD03C046
:10054000808186FD0DC00FB607FCF7CF8C9185FF2B
:10055000F2CF808185FFEDCFCE010E942B02E9CF43
:10056000DF91CF91089587EC91E00E941F0221E076
:10057000892B09F420E0822F08958091B201811126
:100580000DC082E08093AE0184E08093AF011092B1
:10059000B1011092B00181E08093B2018EEA91E046
:1005A00008954091A8015091A9012091A601309190
:1005B000A70142175307B4F49091E8009570E1F356
:1005C0009091E80092FD19C08093F1008091A801FC
:1005D0009091A90101968F739927892B19F48EEFB9
:1005E0008093E8008091A8019091A90101969093D1
:1005F000A9018093A80181E0089580E00895EF9219
:10060000FF920F931F93CF93DF93F82E192FE62EAF
:10061000042F81E0860F880F0E94D10283E00E94A0
:10062000D102CF2DD12FEC0EFD2EF11CCE15DF0502
:10063000B9F007FF13C0FE0184910E94D102182F68
:1006400080E00E94D102812321968111EFCFDF91BA
:10065000CF911F910F91FF90EF9008958881EDCF7A
:1006600081E0F5CFDF92EF92FF920F931F93CF932C
:10067000DF93D82E8A01EB017B01E40EF51ECE1527
:10068000DF0559F0D7FE12C0FE0184910E94D1020D
:1006900021968111F4CF0FEF1FEFC801DF91CF91A9
:1006A0001F910F91FF90EF90DF9008958881EECF1A
:1006B0000F931F93CF93DF931F92CDB7DEB782E0E6
:1006C000898342E450E06AE471E080E80E943203EA
:1006D0000E94BD02DC0112960D911C9101151105BD
:1006E00089F0D801ED91FC910280F381E02DBE01EB
:1006F0006F5F7F4FC801099597FD04C0F801008521
:100700001185ECCF89810F90DF91CF911F910F91CF
:100710000895615030F02091F100FC012083019692
:10072000F8CF289884E68093C301089587EC91E080
:100730000C94FD018F929F92AF92BF92CF92DF9265
:10074000EF92FF920F931F93CF93DF936C017B0186
:100750008A0180910E01882309F45CC08091C40154
:10076000882309F457C08091AC0180FF05C08091B7
:10077000E00082608093E000E801B12C8AEFA82EAF
:1007800093E0892E2AE3922E209711F4BB20D9F111
:100790000E94580181110AC0AA94AA20D9F161E0EF
:1007A00070E080E090E00E948E01EECF8C171D0675
:1007B00011F00CF08C2F9FB7F8948092E9002091F3
:1007C000E80025FD02C09FBFDFCF282F30E0C21B0D
:1007D000D30BF701815020F041914093F100FACF03
:1007E000E20EF31EBB2021F09092E800B12CEBCF7B
:1007F0008091E80085FDE7CF9092E800BB24B39498
:10080000209709F3F3CF5D9884E68093AD0110162D
:1008100011063CF081E090E0F6019383828310E0C2
:1008200000E0C801DF91CF911F910F91FF90EF90F1
:10083000DF90CF90BF90AF909F908F900895CF930F
:10084000DF931F92CDB7DEB76983DC01ED91FC9198
:100850000280F381E02D41E050E0BE016F5F7F4FE9
:1008600009950F90DF91CF910895682F84E692E06B
:100870000E941F0490E080E0089583E08093E900E7
:100880008091F200882319F08AE38093E8000895AC
:100890000E94580190E00895CF93DF931F92CDB747
:1008A000DEB7FC018485958597FD08C02FEF3FEFEB
:1008B000358724870F90DF91CF910895CE0101965F
:1008C0000E942E01019719F4898190E0F3CF8FEFF8
:1008D0009FEFF0CF84E692E00C944C040F931F93AB
:1008E000CF93DF931F92CDB7DEB78C01FC018485D7
:1008F000958597FF0BC0CE0101960E942E010197AE
:1009000071F4898190E0F80195878487F8018485E6
:1009100095850F90DF91CF911F910F9108958FEFE3
:100920009FEFF1CFFC018485958597FD0BC09FB7A4
:10093000F89482E08093E9008091F2009FBF90E0FC
:10094000019608959FB7F89482E08093E900809122
:10095000F2009FBF90E0089520916B0130916C01EF
:10096000C901969587958270A90156954795569528
:1009700047954470842B2170822B08952E98000097
:1009800020E130E040E050E8BC0164237523672B90
:1009900089F02D9A479A0000479800005695479590
:1009A0002150310989F72E9A000090936C018093B1
:1009B0006B0108952D98EECF482F50E09A01220F39
:1009C000331F2470440F551F440F551F4071242BB3
:1009D0008170282B80916B0190916C018A7E822B13
:1009E0000C94BE0420916B0130916C012F7333275E
:1009F000582F4427242B352B9695879596958795C8
:100A0000807C9927822B932B0C94BE04682F87EC53
:100A100091E00E944C0290E080E00895EAEBF0E063
:100A2000E49190917B008E2F880F880F80729F7DBC
:100A3000892B80937B00E770E064E0937C008091D9
:100A40007A00806480937A0080917A0086FDFCCFE2
:100A5000909178008091790089279827892782339F
:100A6000910564F09C01215531092331310540F095
:100A7000815A9109439730F080E0089581E008950C
:100A800082E0089584E00895CF930E940E05C82F58
:100A9000882321F00E940E058111FCCF8C2FCF916D
:100AA0000895FC018081813041F020F0823039F4DA
:100AB00083E001C081E08083089582E0FCCF108252
:100AC0000895813021F0823021F0469A08955F9A8E
:100AD00008952F9A0895813021F0823021F04698B0
:100AE00008955F9808952F980895882349F08230DB
:100AF00089F080E10895815021E030E021F40895EB
:100B000022E030E088E021303105A9F708958150D6
:100B100021F4089520E130E088E0369527952115ED
:100B20003105A9F708958EBD0DB407FEFDCF8EB532
:100B30000895CF92DF92EF92FF920F931F93CF937E
:100B4000DF93182FF62EEA010CE50CBD1DBC0E94A8
:100B50006B058F2D0E94930580E00E94930580E035
:100B60000E94930580E00E94930580E00E94930517
:100B7000812F0E9461050CBD1DBC812F0E946B0559
:100B800080E00E949305082F80E00E94930590E08A
:100B9000B0E0A0E0CC24D82EE92EFA2E80E00E940E
:100BA0009305C82AFE2CED2CDC2CCC2480E00E947E
:100BB0009305C82AFE2CED2CDC2CCC2480E00E946E
:100BC0009305C82A812F0E946105C882D982EA82D2
:100BD000FB82802FDF91CF911F910F91FF90EF90BB
:100BE000DF90CF9008951F93CF93DF9300D000D074
:100BF000CDB7DEB7AE014F5F5F4F61E080E00E948E
:100C0000990589819A81AB81BC8187709927AA2730
:100C1000BB2711E0892B8A2B8B2B09F410E0AE0146
:100C20004F5F5F4F61E082E00E94990589819A8160
:100C3000AB81BC8187709927AA27BB27892B8A2B78
:100C40008B2B09F01C5F812F0F900F900F900F904E
:100C5000DF91CF911F910895EF92FF920F931F9311
:100C6000CF93DF93C82FE62ED22F132F042FF52E0C
:100C70008CE58CBD1DBC8C2F0E946B058E2D0E94B7
:100C800093058F2D0E949305802F0E949305812F3D
:100C90000E9493058D2F0E9493058C2FDF91CF9199
:100CA0001F910F91FF90EF900C9461051F93CF93CC
:100CB000DF93182FD42FC22F262F30E050E040E0D2
:100CC000522F4427332722272227332744275F70B8
:100CD000C03208F5236D436050616CEE0E942C0613
:100CE000DF712D2F30E050E040E04F608C2F90E01E
:100CF000982F8827092E000CAA0BBB0B282B392B09
:100D00004A2B5B2B60E9812F0E942C0680E0DF914B
:100D1000CF911F910895236D416050616CEE0E9448
:100D20002C06C6952C2F30E0322F222722273F7128
:100D3000032E000C440B550BD695DF718D2F90E0E0
:100D4000B0E0A0E0AF60DACF1F93CF93DF93C82F5E
:100D5000D62F142F0E947505212F4D2F682F8C2F11
:100D60000E945606D82F81112FC020E030E0A90143
:100D700061E98C2F0E942C0625E0CC2321F021E094
:100D8000C23009F024E0022E000C330B440B550B4B
:100D9000A901332722276DEE8C2F0E942C0622EC0E
:100DA00031E040E050E064E98C2F0E942C0620E8FE
:100DB00031E340E050E060E88C2F0E942C068D2F3C
:100DC000DF91CF911F910895DFEFF9CF1F93CF935C
:100DD000DF93C82FD62F142F0E947505212F4D2F7A
:100DE000682F8C2F0E945606D82F811133C020E027
:100DF00030E0A90161E98C2F0E942C0620E030E050
:100E000044E050E06DEE8C2F0E942C0620E030E094
:100E1000A90164E98C2F0E942C0624E030E040E018
:100E200050E060E88C2F0E942C0622ED36E046E070
:100E300050E060EF8C2F0E942C0628EC30E040E060
:100E400050E063E98C2F0E942C068D2FDF91CF910B
:100E50001F910895DFEFF9CF40E060E0823019F490
:100E600080E00C94E60680E00C94A406CF93DF9318
:100E7000CDB7DEB72F970FB6F894DEBF0FBECDBF4C
:100E800020911A0130911B0140911C0129833A8362
:100E90004B8320911D0130911E0140911F012C8335
:100EA0003D834E8320912001309121014091220108
:100EB0002F83388749872091230130912401409165
:100EC00025012A873B874C872091260130912701F5
:100ED000409128012D873E874F876130F1F060F007
:100EE000623011F180E02F960FB6F894DEBF0FBE8E
:100EF000CDBFDF91CF910895282F30E0FE01E20FA2
:100F0000F31F458567812F960FB6F894DEBF0FBE9D
:100F1000CDBFDF91CF910C94A406282F30E0FE01C5
:100F2000E20FF31F4181EECF282F30E0FE01E20FE8
:100F3000F31F448162852F960FB6F894DEBF0FBE73
:100F4000CDBFDF91CF910C94E6061F93CF93DF9333
:100F5000182F3E9A579A279A469A5F9A2F9A249A60
:100F6000569A2C985E98682F80E00E943607C1E060
:100F7000D0E0811102C0D0E0C0E0D195C195D10987
:100F8000612F82E00E94360781118CEF8C0FDF9178
:100F9000CF911F9108958FEF93E00E94F2046CE2CD
:100FA00071E080E090E00E948E0190E080E00E947D
:100FB000F2046CE271E080E090E00C948E01CF933B
:100FC000DF93880F991FC1E0D0E002C0CC0FDD1F76
:100FD0008A95E2F7CE010E94F20468E270E080E0B8
:100FE00090E00E948E0190E080E00E94F20464E1B3
:100FF00070E080E090E00E948E01CE010E94F20439
:1010000068E270E080E090E00E948E0190E080E075
:101010000E94F2046AE070E080E090E0DF91CF91FE
:101020000C948E010E94AC0481600C94DC040E943C
:10103000AC048E7F0C94DC04CF92DF92EF92FF928F
:101040000F931F93CF93DF93EC010E94AC04D7FF63
:1010500048C0D195C195D1098B7F0E94DC04C12C79
:10106000D12C76010BE017E2209709F43CC020E078
:1010700030E040E85FE3C701B6010E94CD2087FF62
:101080005E9A000020E030E040E85FE3C701B6016F
:101090000E94CD2087FD02C05E982197000020E0CD
:1010A00030E040E85FE3C701B6010E94CD2087FD34
:1010B0000AC020E030E040E85FE3C701B6010E94CB
:1010C00060206B017C0120E030E040E85FE3C70175
:1010D000B6010E9461206B017C01C8010197F1F704
:1010E000C3CF8460BACFDF91CF911F910F91FF9052
:1010F000EF90DF90CF9008952C9A00002C9800007C
:101100000895DF92EF92FF920F931F93CF93DF9397
:10111000EC010E94AC04D7FF32C0D195C195D10932
:101120008B7F0E94DC040E94170802E310E08BE929
:10113000E82E8FE0F82E9AE0D92E209709F05E9ADB
:101140000000209729F05E982197C7010197F1F7D9
:101150000000101611064CF4D09EC001D19E900DD7
:1011600011240E94230101501109209731F7DF91CA
:10117000CF911F910F91FF90EF90DF9008958460C1
:10118000D0CFAF92BF92CF92DF92EF92FF920F93A8
:101190001F93CF93DF9300D000D0CDB7DEB780E0B0
:1011A0000E94A50786EF9FEF0E94810862E370E02E
:1011B00080E090E00E948E01F12CE12CD12CC12C1A
:1011C00010E000E05BE8A52EBB24B39481E090E042
:1011D0000E948108C5010197F1F719821A821B82CA
:1011E0001C82AE014F5F5F4F6FE680E00E94990561
:1011F0000F5F1F4F88EEE81683E0F80601F58FEFCA
:10120000C81AD80A05361105B4F081E090E09601BD
:10121000220F331F02C0880F991F2A95E2F70E9400
:10122000F204093C110574F090E080E00E94F204A1
:1012300010E000E007C08FEFE81AF80AC7CF0536C4
:1012400011051CF78FECE81687E0F806A1F780E897
:101250009FEF0E948108809119010E94A50764EF09
:1012600071E080E090E00E948E0187E29FEF0E9493
:101270001C0881E0809355010F900F900F900F9004
:10128000DF91CF911F910F91FF90EF90DF90CF9062
:10129000BF90AF9008950E94C10885E591E00E943B
:1012A000F20490E080E00E94F2048091C5019091E8
:1012B000C60124E030E0281B390B220F331F81E0E8
:1012C00090E002C0880F991F2A95E2F70C94F2046F
:1012D00080916B0190916C018A620E94BE046AE069
:1012E00070E080E090E00E948E0180916B0190910F
:1012F0006C01857D0E94BE04809119010E94A507A2
:101300000E94C1082091A3018DE99EEFAC01249FAA
:10131000C001259F900D11240E941C08809100019E
:10132000882351F080915501882331F089ED90E0B8
:101330000E941C081092550108951F93CF93DF93CC
:101340008EE293E00E94ED1F8F5FC82FD0E0DC2F6C
:10135000CC278FE293E00E94ED1F182F80E393E0EB
:101360000E94ED1F1F3F11F4882369F0811748F494
:1013700081E0810F8C0F9D2F911DDF91CF911F91E7
:1013800008958F5FF7CF81E0F5CFCF93DF938BE0A8
:1013900090E00E94ED1FD82F8CE090E00E94ED1F9E
:1013A000C82FD81759F08DE090E00E94ED1FD81794
:1013B00021F0C81719F0CFEF01C0CD2F8C2FDF918E
:1013C000CF9108950F931F93CF93DF930E94C50988
:1013D000082F10E0813029F0B0F08230A1F0833086
:1013E000A9F5CFE1D3E0CE010E960E94ED1F90E06B
:1013F00024E0959587952A95E1F70817190709F1D3
:10140000CE01019611C0D0E0C0E0CE010E960E9440
:10141000ED1F90E034E0959587953A95E1F7081730
:10142000190739F0CE010197DF91CF911F910F91EC
:1014300008952196C03283E0D80739F78FE193E011
:10144000F3CF219780F690E080E0EECF8FEF9FEF13
:10145000EBCFCF93C82F682F8BE090E00E94FB1F4B
:101460006C2F8CE090E00E94FB1F6C2F8DE090E0D1
:101470000E94FB1F0E94C50991E08C1390E0892F08
:10148000CF910895CF93DF93D0E0C0E06FEFCE010E
:101490000E94FB1F2196CF3F83E0D807B9F76FEF7B
:1014A0008FEF93E0DF91CF910C94FB1F0F931F936D
:1014B000CF93DF930E94CB070E94CB070E94CB07FC
:1014C0000E949D098F3F9807B1F0EC0121966C2F87
:1014D00061500C2F017010E0C801815D9C4F0E948B
:1014E000FB1F6D2F61508EE293E0DF91CF911F9132
:1014F0000F910C94FB1FDF91CF911F910F910895D5
:101500000E94F305882399F00E94560A0E946809F8
:101510000E94F305882359F00E94560A0E94680928
:101520000E94F305882319F00E94CB07FDCF089590
:101530001092000180915501811107C087E29FEF51
:101540000E941C0881E0809355010C94800A81E080
:101550008093000180915501882331F089ED90E05E
:101560000E941C08109255010C94800AAF92BF9201
:10157000CF92DF92EF92FF920F931F93CF93DF935F
:101580000E94A70A0E941708D09119014FE068E055
:1015900080E0D13009F056C00E94A40608E813E1AB
:1015A000C0E034E0C32ED12C42E0A42EB12C5BE489
:1015B000E52E56E4F52E0E947C08CF5FC333D0F0B1
:1015C0008091C5019091C6019601281B390BC90174
:1015D000880F991F950102C0220F331F8A95E2F7E9
:1015E000C9010E94F204C53628F090E080E00E9414
:1015F000F204C0E0C7010197F1F701501109D9F6D3
:101600008D2F0E942C070E94980A8091C50190910D
:10161000C60124E030E0281B390B220F331F81E084
:1016200090E002C0880F991F2A95E2F7DF91CF91D1
:101630001F910F91FF90EF90DF90CF90BF90AF90F0
:101640000C94F2040E94E606A9CFEF92FF920F934A
:101650001F93CF93DF93D82F80915401811107C03E
:101660000E944B091092A30181E080935401C3E0D2
:101670000D2F10E083E6E82EFF24F3948091A30160
:1016800090E0801B910B9C012E9DC0012F9D900D21
:101690003E9D900D11240E941C08D093A3010E942E
:1016A000F305882399F1C15019F40E94CB07FDCFAF
:1016B0000E94560A1092A30180916B0190916C01D7
:1016C0008A620E94BE046AE070E080E090E00E94BE
:1016D0008E0180916B0190916C01857D0E94BE040A
:1016E000809119010E94A5070E944B098091000179
:1016F000882321F280915501882309F4BFCF89ED19
:1017000090E00E941C0810925501B8CFDF91CF9154
:101710001F910F91FF90EF9008950F931F93CF9318
:10172000DF93182F092FC4E0D0E08091C50190917C
:10173000C6019E01281B390B220F331F82E090E067
:1017400002C0880F991F2A95E2F70E94F2041093B5
:10175000C5010093C601812F0E94250B90E080E017
:101760000E94F2048091C5019091C601C81BD90B5B
:10177000CC0FDD1F81E090E002C0880F991FCA9551
:10178000E2F7DF91CF911F910F910C94F204CF9368
:10179000DF93C091C501D091C60124E030E02C1B3D
:1017A0003D0B220F331F81E090E002C0880F991F8C
:1017B0002A95E2F70E94F2040E940E05857091F0CE
:1017C00064EF71E080E090E00E948E010E940E05BF
:1017D000813021F1843049F164EF71E080E090E0E4
:1017E0000E948E018091C5019091C6010A9719F55A
:1017F00082E090E00E94F20462E370E080E090E01A
:101800000E948E0181E090E00E94F20462E370E0A9
:1018100080E090E0DF91CF910C948E01CE01019693
:101820002A97D4F60E948D0BD7CF1C161D06A4F65E
:10183000CE010197F7CFDF91CF910895CF93DF933A
:101840008091C5019091C6018530D8F49927880F01
:10185000991F01960E94F51FEC01019661F490E03A
:1018600080E00E94ED1F893C30F49AE0899FE001FE
:101870001124C954D84FCE018E58934083319C40D7
:1018800010F0CEE8D3E0CE01DF91CF910895EF9232
:10189000FF920F931F93CF93DF930E941E0C8C0136
:1018A0007C0184E1E81A85E0F80A0E941208C0ED84
:1018B000D7E0101611068CF50E947C080150110922
:1018C000083785E018075CF4C03787E1D8075CF477
:1018D0002396C43C89E0D80734F4229604C008302B
:1018E00087E01807B4F30E151F059CF4093883E14F
:1018F00018077CF0C73282E0D8073CF0219780912E
:101900001901813031F4219704C0CB3481E0D8072C
:10191000B4F7CE010E942301CCCFDF91CF911F916C
:101920000F91FF90EF9008956091190180E00E945F
:1019300036070E94A70A0E94470C0E94F3058823DD
:1019400021F00E94560A0E94680910927C010E94B0
:10195000980A809119010E942C0710929F01089506
:101960004F925F926F927F928F929F92AF92BF92AF
:10197000CF92DF92EF92FF920F931F93CF93DF935B
:101980001F92CDB7DEB7B82E8091C50133E0E32EAC
:101990008F70D82E0E94C509182F89830E94E209F2
:1019A000113031F098F0123089F0133009F086C010
:1019B0008C0101501109003283E01807A0F0CE011C
:1019C00001960E94510510E000E00DC08C010F5FF0
:1019D0001F4F003223E0120730F0CE0101960E9423
:1019E00051050FE113E089810E94290A8823F1F053
:1019F000698120E1629FB0011124FD2CF60E025F87
:101A00001F4F6F2DC8010E94FB1FC8010E94ED1FD0
:101A1000F81661F0CE0101960E94510589810E945D
:101A2000290A882319F0EA94E110B4CF0E94A70A8A
:101A30006091190180E00E9436070E94170881E03A
:101A400080937C010E941E0C4C012BE6821A2EEF23
:101A5000920A23E0A22E04E911E16C012BE8C21ADC
:101A600021E0D20A0E941708F12CE12C84E991E1CF
:101A7000A0E0B0E0E814F90408F07AC00E94230165
:101A80000E9469012B013C0180EAE8168FE0F8060C
:101A900018F509322AE012079CF00450110902508F
:101AA000110901501109809119018130A9F4809127
:101AB0007B01882389F0015011090EC0198283CF60
:101AC000053185E018075CF70B3822E012074CF768
:101AD0000F3581E018073CF7CE14DF0430F40832EC
:101AE0002AE0120714F4065F1F4F8BE591E00E9475
:101AF000CB198134910529F581E080937B01809198
:101B000019010E942C070E94980A809119010E94D5
:101B10002C07B1100E94980A81E080939F010F90DA
:101B2000DF91CF911F910F91FF90EF90DF90CF90B9
:101B3000BF90AF909F908F907F906F905F904F90ED
:101B400008950E947C080E946901AB01BC01C80194
:101B5000012E000CAA0BBB0B840D951DA61DB71DF5
:101B6000841B950BA60BB70B2FEFE21AF20A82CF5C
:101B70000E94F305882349F2AA94A11003C00E9491
:101B8000CB07FDCF0E94560A0E9468090E94470CAD
:101B900069CFE7ECF1E01382128288EE93E0A0E0D7
:101BA000B0E084839583A683B78324E331E0318357
:101BB00020832DEC30E0358724872CEC30E037870C
:101BC000268728EC30E0318B208B29EC30E0338BFA
:101BD000228B2AEC30E0358B248B2EEC30E0378BD7
:101BE000268B118E128E138E148EE4E6F2E0138291
:101BF000128284839583A683B78386E491E09183E0
:101C000080838FEF9FEF9587848708951F920F92AF
:101C10000FB60F9211242F933F938F939F93AF93FF
:101C2000BF938091BB019091BC01A091BD01B09187
:101C3000BE013091BA0123E0230F2D3758F50196EC
:101C4000A11DB11D2093BA018093BB019093BC01EB
:101C5000A093BD01B093BE018091BF019091C001DE
:101C6000A091C101B091C2010196A11DB11D809347
:101C7000BF019093C001A093C101B093C201BF9175
:101C8000AF919F918F913F912F910F900FBE0F9029
:101C90001F90189526E8230F0296A11DB11DD2CFE3
:101CA0001F920F920FB60F9211242F933F934F93D1
:101CB0005F936F937F938F939F93AF93BF93EF93B4
:101CC000FF93E0911701F09118010995FF91EF91B1
:101CD000BF91AF919F918F917F916F915F914F9144
:101CE0003F912F910F900FBE0F901F9018951F924C
:101CF0000F920FB60F9211242F933F934F935F9340
:101D00006F937F938F939F93AF93BF93EF93FF93C3
:101D1000E0911501F09116010995FF91EF91BF91A6
:101D2000AF919F918F917F916F915F914F913F9173
:101D30002F910F900FBE0F901F9018951F920F922A
:101D40000FB60F9211242F933F934F935F936F938E
:101D50007F938F939F93AF93BF93EF93FF93E09104
:101D60001301F09114010995FF91EF91BF91AF918B
:101D70009F918F917F916F915F914F913F912F91A3
:101D80000F900FBE0F901F9018951F920F920FB6D5
:101D90000F9211242F933F934F935F936F937F93F1
:101DA0008F939F93AF93BF93EF93FF93E0911101B4
:101DB000F09112010995FF91EF91BF91AF919F9121
:101DC0008F917F916F915F914F913F912F910F90E4
:101DD0000FBE0F901F9018951F920F920FB60F9283
:101DE00011242F933F934F935F936F937F938F9320
:101DF0009F93AF93BF93EF93FF93E0910F01F09107
:101E000010010995FF91EF91BF91AF919F918F9133
:101E10007F916F915F914F913F912F910F900FBEE6
:101E20000F901F9018951F920F920FB60F921124CA
:101E30002F933F934F935F936F937F938F939F93D2
:101E4000AF93BF93EF93FF9387EC91E00E942B0237
:101E5000FF91EF91BF91AF919F918F917F916F9182
:101E60005F914F913F912F910F900FBE0F901F9058
:101E700018951F920F920FB60F9211242F938F93E4
:101E80009F93EF93FF93E091D701F091D801808168
:101E9000E091DD01F091DE0182FD1BC09081809117
:101EA000E0018F5F8F732091E101821741F0E09193
:101EB000E001F0E0E953FE4F958F8093E001FF9140
:101EC000EF919F918F912F910F900FBE0F901F90C8
:101ED00018958081F4CF1F920F920FB60F921124A4
:101EE0008F939F938091E1009091E100937F909375
:101EF000E10083FF0FC01092E90091E09093EB00A6
:101F00001092EC0092E39093ED001092C40198E0DF
:101F10009093F00082FF22C093E09093E9009091AB
:101F2000F200992319F09AE39093E8009091AD01A3
:101F3000992341F09091AD0191509093AD01911191
:101F400001C05D9A9091C301992341F09091C30122
:101F500091509093C301911101C0289A84FF18C039
:101F60008091E2008E7E81608093E2008091E100AA
:101F70008F7E8093E1008091AC018E7E80618093A2
:101F8000AC019F918F910F900FBE0F901F901895ED
:101F900080FFF7CF8091E2008E7E80618093E20027
:101FA0008091E1008E7E8093E1008091AC018E7E75
:101FB0008160E5CF1F920F920FB60F921124CF923E
:101FC000DF92EF92FF920F931F932F933F934F93C4
:101FD0005F936F937F938F939F93AF93BF93EF9391
:101FE000FF93CF93DF93CDB7DEB76C97DEBFCDBF46
:101FF0001092E9008091E80083FF25C068E0CE01DF
:1020000045960E94890382EF8093E8008D8987FFBF
:1020100039C09091E80090FFFCCF982F907609F09E
:1020200034C19E894F89588D2F89F88C911131C008
:10203000803861F58091AB018093F1001092F1003E
:102040008EEF8093E8006C960FB6F894DEBF0FBE5B
:10205000CDBFDF91CF91FF91EF91BF91AF919F9154
:102060008F917F916F915F914F913F912F911F9130
:102070000F91FF90EF90DF90CF900F900FBE0F90D9
:102080001F9018959EEF9093E800C7CF1092F10033
:10209000D5CF913059F48111D3CF4130510581F61C
:1020A0008091AB018D7F8093AB01CACF933049F40F
:1020B0008111C6CF4130510519F68091AB01826084
:1020C000F2CF953041F48091E80080FFFCCF20688A
:1020D0002093E300B5CF963009F0A9C00B8D1C8D7D
:1020E00022E01092E9001092A9011092A801F212C8
:1020F0002EC01092A7011092A6010E9458031F82C1
:1021000099E09983FA8291E09E8390EA98879AEF0A
:1021100099872091A8013091A901275F3F4F3C8307
:102120002B838D831092E9001092A9011092A801CF
:102130001093A7010093A60149E050E0BE016F5F34
:102140007F4F80E00E9432030E94580379CF1093A2
:10215000A7010093A6010E94BD02DC0112960D9119
:102160001C910115110509F43BC1D801ED91FC91B9
:102170000480F581E02DBE016B5E7F4FC80109959B
:10218000009709F028C1F80100851185EACFF3E036
:10219000FF120EC08F89882309F440C0823061F499
:1021A00040E860E38FEB91E00E94FF02811148CF8D
:1021B00081E28093EB0047CF813029F440E86CE165
:1021C00082EA91E0F1CF833099F70E94BD02DC01F1
:1021D0001296ED90FC908E010F5F1F4F6801E11485
:1021E000F10479F0D701ED91FC910680F781E02DA3
:1021F000B801C7010995080F111DF701E084F184AA
:10220000EECFD8011C92F60101900020E9F731973A
:10221000BF016C197D0940E0C601C6CF6CE871E0D2
:10222000FB01449150E080E80E94320309CF9730CF
:1022300009F4BECF983021F481E08093F10000CF03
:10224000993009F0FDCE837009F0B2CFEAE2F1E0F7
:1022500081E031E096E32191222371F08093E9003F
:102260003093EB00DF0111972C912093EC009093B9
:10227000ED008F5F873079F78EE78093EA00109248
:10228000EA008F898093C401DBCE8B8D9C8D1092E8
:10229000E9001092A9011092A8019093A7018093E0
:1022A000A601898D81117DC08E899D89913A49F45D
:1022B000813209F07DCF47E050E067E071E080E0D7
:1022C000B3CF913209F074CF833269F48F89988D3E
:1022D000B0E0A0E08093030190930401A093050176
:1022E000B0930601ADCE803209F080C08091E80045
:1022F00082FFFCCF67E087E091E00E9489038BEFCB
:102300008093E8008091AA01E0E0F8E0882311F0D2
:10231000EEEFFAE08091070190910801A091090188
:10232000B0910A01803B9440A105B105B9F48091B8
:102330000E0180FD13C0EE3F8AE0F80721F587E724
:1023400097E79183808388E19BE00FB6F894A89586
:10235000809360000FBE9093600072CE0FB6F89429
:10236000A895809160008861809360001092600061
:102370000FBEA895EE3FAAE0FA0761F41092FF0A9B
:102380001092FE0A5DCE808191819093FF0A809326
:10239000FE0AD5CF8091FE0A9091FF0A9183808337
:1023A0004FCE0E94BD02FC0102811381011511056F
:1023B00009F4FECED801ED91FC910190F081E02D61
:1023C000BE016B5E7F4FC8010995811139CEF801BE
:1023D00000851185EBCF181619060CF431CEE8CE26
:1023E000F1E0FF12D4CE60E971E01ACF823209F039
:1023F00027CE8F8980930E0185CFCF93DF9300D0B6
:1024000000D01F92CDB7DEB7789484B5826084BDCA
:1024100084B5816084BD85B5826085BD85B58160E8
:1024200085BD80916E00816080936E001092810066
:102430008091810082608093810080918100816021
:1024400080938100809180008160809380008091E2
:1024500091008260809391008091910081608093CF
:102460009100809190008160809390008091C100E4
:1024700084608093C1008091C10082608093C1001C
:102480008091C10081608093C1008091C300816010
:102490008093C3008091C00082608093C0008091CF
:1024A000C20081608093C20080917A008460809332
:1024B0007A0080917A00826080937A0080917A001D
:1024C000816080937A0080917A00806880937A009E
:1024D0001092C4011092AB011092AC018091D70010
:1024E00081608093D70080EA8093D80089B58061AD
:1024F00089BD89B5826089BD09B400FEFDCF61E068
:1025000070E080E090E00E948E018091D8008F7C86
:1025100080618093D8008091E000807F8093E0000C
:102520008091E1008E7E8093E1008DE08093E20057
:10253000559A209AEEEFFFE7859194918B3F9C4D41
:1025400019F481E08093AA018FEF93E00E94ED1FC0
:102550008F3F11F00E94420A3F9A269A259A479887
:102560002E982D9810926C0110926B0190E080E0F3
:102570000E94BE0480916B0190916C010E94BE0488
:1025800090E080E00E94DF078FEF9FEF9093710251
:10259000809370020DE611E085E394E0909376015C
:1025A000809375018AE694E0909378018093770197
:1025B00093E09093700110927A0110927901E0916A
:1025C000D701F091D80182E08083E091D301F091AE
:1025D000D4011082E091D501F091D60180E1808391
:1025E0001092DF01E091DB01F091DC018EE080834D
:1025F000E091D901F091DA01808180618083E091DE
:10260000D901F091DA01808188608083E091D9015D
:10261000F091DA01808180688083E091D901F091A6
:10262000DA0180818F7D8083ABE5EA2EA1E0FA2E6E
:1026300026E035E0309364012093630126E933E01E
:10264000309366012093650190935E0110926801BA
:102650001092670181E090E00E94DF071093B502BD
:102660000093B4021093B7020093B60284EC90E09A
:102670009F938F93FF92EF920E94071A84B1817FFC
:1026800084B984B1866084B982E090E00E94DF075B
:1026900083E090E00E94DF0710926A0110926901C6
:1026A00080917A00876080937A0080917C008064BA
:1026B00080937C0080917A00806880937A0080E229
:1026C00080937E0010927D0084E090E00E94DF07FE
:1026D00080916B0190916C01857D0E94BE0490E019
:1026E00080E00E94F2040E940E050F900F900F9060
:1026F0000F90823031F481E090E09093A5018093B7
:10270000A40180E00E94A5070E94F3050E94E2094F
:10271000803233E0930720F50E960E94ED1F182FAC
:10272000082F0F700530E0F40E94C5098430C0F412
:10273000212F30E0F4E035952795FA95E1F78217DF
:10274000130671F40E94C1088DE99EEFAC01049F4D
:10275000C001059F900D11240E941C080093A30145
:102760008E010D5F1F4FEBEB2E2EE2E13E2E7DE73B
:10277000E72E71E0F72E80919D0190919E01809748
:102780000CF0ABC08BE591E00E94CB1997FD17C010
:102790008D30910519F08A30910511F490E080E0B8
:1027A00020919D0130919E01A9014F5F5F4F509391
:1027B0009E0140939D0123583E4FF90180831C8266
:1027C0001B821A82198220919D0130919E0112165E
:1027D00013060CF0CCC0892B09F0C9C010929E01E1
:1027E00010929D011F930F932EE331E03F932F939F
:1027F000FF92EF920E94221A0F900F900F900F906D
:102800000F900F90181619060CF06EC0CB80DC806C
:102810005AE0C516D10408F0AAC082E090E0909377
:10282000A5018093A4014091C5015091C60124E007
:1028300030E0241B350B220F331F02C0880F991F75
:102840002A95E2F70E94F204D092C601C092C50117
:1028500080919F0181110E94940C8091C5010E947A
:10286000250B8091C5019091C60124E030E0281B22
:10287000390B220F331F82E090E002C0880F991FAE
:102880002A95E2F70E94F20480919F01811103C012
:1028900081E00E94B00C90E080E00E94F204809100
:1028A000C5019091C60124E030E0281B390B220FAE
:1028B000331F81E090E002C0880F991F2A95E2F74C
:1028C0000E94F2048AE391E09F938F938BE591E05D
:1028D0009F938F930E94071AF0C110929E0110924D
:1028E0009D018FEF9FEF6BCF1F930F9386E391E0D6
:1028F0009F938F93FF92EF920E94221A0F900F9056
:102900000F900F900F900F9018161906BCF48B8142
:102910009C818A30910558F520919F01222349F02E
:1029200083E090E09093A5018093A40182E391E07D
:10293000CBCF0E948D0B0E94B60AF8CF1F930F9346
:102940002EE231E03F932F93FF92EF920E94221AE2
:102950000F900F900F900F900F900F901816190670
:102960006CF58B819C810097E9F0019729F1C0906B
:10297000A401D090A50191E0C916D10409F46EC25A
:102980000CF01AC2CD2809F42FC480E090E0892B06
:1029900009F4F1CE0E94B302882309F4ECCE0E9420
:1029A0000000E5CE81E080931901809119010E9419
:1029B000A5078AE291E088CF82E0F5CF1F930F93BD
:1029C00086E291E09F938F93FF92EF920E94221AEA
:1029D0000F900F900F900F900F900F9018161906F0
:1029E0008CF40E94940C82E291E09F938F938BE58C
:1029F00091E09F938F930E94071A1092A501109265
:102A0000A4015BC11F930F932EE131E03F932F93FD
:102A1000FF92EF920E94221A0F900F900F900F904A
:102A20000F900F901816190684F48B819C81892BC6
:102A300009F09DCF88E198E00FB6F894A8958093AF
:102A400060000FBE9093600092CF1F930F938AE1B6
:102A500091E09F938F93FF92EF920E94221A0F9022
:102A60000F900F900F900F900F9018161906D4F436
:102A70008B819C81892B09F07ACF80917C011F92F8
:102A80008F9384E191E09F938F938BE591E09F93E7
:102A90008F930E94071A0F900F900F900F900F9036
:102AA0000F9065CF1F930F9380E191E09F938F93D9
:102AB000FF92EF920E94221A0F900F900F900F90AA
:102AC0000F900F90181619061CF58B819C810097AA
:102AD00019F48CE091E0F8CE8130910531F41F9229
:102AE0008BE68F9386E091E0CECF8230910531F472
:102AF0001F928AE68F9380E091E0C5CF039709F09B
:102B000036CF0E949D099F938F938AEF90E0BBCFB1
:102B100081E090E08C0F9D1F9F938F931F930F93E5
:102B200083EF90E09F938F93FF92EF920E94221A7F
:102B30000FB6F894DEBF0FBECDBF181619066CF4A1
:102B40008B819C810A9708F012CF89819A81039723
:102B500008F00DCF8FEE90E0B7CE1F930F938BEE62
:102B600090E09F938F93FF92EF920E94221A0F9012
:102B70000F900F900F900F900F90181619060CF0F1
:102B800045C08B819C81892B09F0F1CE0E94A70A58
:102B90000E9417086091190180E00E94360732E018
:102BA000C32E33E0D32E88E29AE0A0E0B0E00E948A
:102BB00023010E9469014B015C018BE591E00E94B9
:102BC000CB198134910561F481E080937B01809180
:102BD00019010E942C070E94980A87EE90E074CE9B
:102BE0000E947C080E946901F8E28F0EFAE09F1EA5
:102BF000A11CB11CA5019401261B370B480B590BD6
:102C0000C90131E0C31AD10891F6E1CF1F930F93A8
:102C100083EE90E09F938F93FF92EF920E94221A8F
:102C20000F900F900F900F900F900F90181619069D
:102C30000CF048C0CB80DC804AE0C416D10408F018
:102C400096CED092C601C092C50180919F0181119C
:102C50000E94940C6091190180E00E9436078C2D2F
:102C60000E94250B0E94A70A0E94170892EEC92E07
:102C700094E0D92E2BE6A22E27E1B22E0E947C08EA
:102C8000C5010197F1F751E0C51AD108B9F70E94C3
:102C9000980A809119010E942C078FED90E09F9374
:102CA0008F938BE591E09F938F930E94071A82E0A8
:102CB00090E09093A5018093A4010F900F900F9046
:102CC0000F9055CE1F930F938BED90E09F938F93B2
:102CD000FF92EF920E94221A0F900F900F900F9088
:102CE0000F900F901816190664F58B819C81892B23
:102CF00009F03DCE6091190180E00E9436070E94E4
:102D0000A70A0E941208B2EECB2EB4E0DB2E8BE6AF
:102D1000A82E87E1B82E0E947C08C5010197F1F723
:102D200081E0C81AD108B9F70E94980A8091C501BC
:102D30000E94250B809119010E942C0787ED90E0DD
:102D400054CE1F930F9383ED90E09F938F93FF9248
:102D5000EF920E94221A0F900F900F900F900F90F9
:102D60000F901816190664F48B819C81892B09F049
:102D7000FECD84E090E09093A5018093A401F7CD6F
:102D80001F930F938FEC90E09F938F93FF92EF929E
:102D90000E94221A0F900F900F900F900F900F909B
:102DA000181619060CF0E3CD8B819C810A9708F068
:102DB000DECD8BEC90E088CDF4E0CF16D10409F4A1
:102DC0004EC225E0C216D10409F0DFCD90E080E0CC
:102DD0000E94F20460E273E080E090E00E948E01C5
:102DE00084E0A82EB12C8091C5019091C6016501A7
:102DF000C81AD90ACC0CDD1C81E090E00C2C02C072
:102E0000880F991F0A94E2F70E94F20464E670E0CA
:102E100080E090E00E948E0182E090E002C0880F86
:102E2000991FCA94E2F70E94F20464E670E080E021
:102E300090E00E948E0160E273E080E090E00E94EA
:102E40008E010E944405813009F44BC2823009F0A2
:102E50009CCDB092A501A092A40197CD80910201D2
:102E6000882301F190E080E00E94F20468EC70E0B9
:102E700080E090E00E948E018AEA92E00E94F204D3
:102E800060EB74E080E090E00E948E0190E080E0D2
:102E90000E94F20468E572E080E090E00E948E01FA
:102EA000109202018090A201882009F42EC10E9494
:102EB000C70B0E940E05823009F067CDC090C50196
:102EC000D090C60124E030E02C193D09220F331FB9
:102ED00082E090E002C0880F991F2A95E2F70E94D5
:102EE000F20464EF71E080E090E00E948E010E94A5
:102EF0000E05823009F049CD8C2D0E94250BC09023
:102F0000C501D090C60135E0C316D1040CF0BFC096
:102F100080919F01811139CDCD820E941E0C5C01F0
:102F200080E00E94B00C4EE161E080E00E94A406C7
:102F30008FB7F8944090BB015090BC016090BD01E8
:102F40007090BE018FBF912C0E940E05813081F0E0
:102F5000843009F46EC08FB7F8944090BB01509054
:102F6000BC016090BD017090BE018FBF912C1FC04D
:102F7000911009C0C5018859934083319C4008F4E1
:102F800048C0982C14C02FB7F8948091BB01909141
:102F9000BC01A091BD01B091BE012FBF841995095C
:102FA000A609B709893E9340A105B10518F780E04D
:102FB00091E00E94F2046AE070E080E090E00E94FC
:102FC0008E0180E092E00E94F2046AE070E080E00E
:102FD00090E00E948E0188E090E00E94F20462E39B
:102FE00070E080E090E00E948E010E940E05823029
:102FF00009F0AACF0E94940C3D81353008F0C5CC71
:10300000C6019927880F991FB50101960E940D20CE
:10301000BCCC0E941208FAE09F2EC1010197F1F783
:103020000E947C089A949110F8CF8AE0A81AB108FF
:10303000A8CF911017C0C5018458934083319C409C
:1030400008F09FCF0E941708EAE09E2EC101019769
:10305000F1F70E947C089A949110F8CF2AE0A20E12
:10306000B11C8FCF2FB7F8948091BB019091BC0118
:10307000A091BD01B091BE012FBF84199509A60989
:10308000B709893E9340A105B105A8F690CF90E01D
:1030900080E00E948D0B90E080E00E94F20460E9E5
:1030A00071E080E090E00E948E018AEA92E00E9446
:1030B000F20460E971E080E090E00E948E0190E00F
:1030C00080E00E94F20460E971E080E090E00E94FC
:1030D0008E0190E080E00E94F2048091C501909101
:1030E000C60124E030E0281B390B220F331F81E09A
:1030F00090E002C0880F991F2A95E2F70E94F2041F
:103100001092A5011092A40140CC80E091E00E94B1
:10311000F20461E070E080E090E00E948E0180E0C7
:1031200092E00E94F20461E070E080E090E00E9492
:103130008E01C090A001D090A1019601220F331FF3
:1031400082E090E002C0880F991F2A95E2F70E9462
:10315000F20461E070E080E090E00E948E010E9445
:103160000E058230B9F08430B1F1813009F00DCC18
:103170001C141D040CF009CC41E0C41AD108D092F3
:10318000A101C092A00160E273E080E090E00E94A3
:103190008E01FBCB52E0C516D10499F044F4CA94D9
:1031A000CD2809F0F2CB81E08093A201EECBE3E0E1
:1031B000CE16D10469F0F4E0CF16D10409F46BCF38
:1031C000E4CB809101018111E0CB0E94420A63CFE0
:1031D00010920101DACB24E0C216D1040CF0D5CB59
:1031E0003FEFC31AD30ACBCF0E94C70B0E940E0534
:1031F000823009F0CACBC090C501D090C6014AE028
:10320000C416D1040CF0C1CB24E030E02C193D09E8
:10321000220F331F82E090E002C0880F991F2A9589
:10322000E2F70E94F20464EF71E080E090E00E9417
:103230008E010E940E05823009F0A7CB0E94C108C2
:103240008DE99EEFFC01CE9EC001CF9E900D112412
:103250000E941C08C092A3010E94B60A96CB90E07F
:1032600080E00E94F20460E273E080E090E00E945F
:103270008E018091C5019091C601C81AD90ACC0C63
:10328000DD1C82E090E002C0880F991FCA94E2F72B
:103290000E94F20460E273E080E090E00E948E0100
:1032A0000E944405813051F0823009F06ECB85E0F8
:1032B00090E09093A5018093A40167CB1092A501A3
:1032C0001092A40186E491E09F938F938BE591E0A7
:1032D0009F938F930E94071A0F900F900F900F905B
:1032E00054CB1092A5011092A40182E491E0ECCF9E
:1032F0001F920F920FB60F9211248F939F93AF934B
:10330000BF938091570190915801A0915901B091BC
:103310005A01892B8A2B8B2B81F190915601809138
:1033200000008927809300008091570190915801F7
:10333000A0915901B0915A01181619061A061B06D8
:103340009CF48091570190915801A0915901B0913E
:103350005A010197A109B10980935701909358012F
:10336000A0935901B0935A01BF91AF919F918F9152
:103370000F900FBE0F901F901895809171008D7F58
:10338000809371008091560190910000809589236F
:1033900080930000E9CFCF93DF93EC012B8120FFD6
:1033A0001AC026FF0CC02F7B2B838E819F81019634
:1033B0009F838E838A8190E0DF91CF91089522FFD1
:1033C00018C0E881F9818081082E000C990B0097C4
:1033D00029F420622B838FEF9FEFEECF3196F98394
:1033E000E8832E813F812F5F3F4F3F832E839927B4
:1033F000E3CFEA85FB85099597FFF3CF2B810196F3
:1034000021F080E2822B8B83E6CF80E1FBCFB0E01E
:10341000A0E0EDE0FAE10C9431200F811885F8016D
:10342000838188608383AE01455F5F4F69857A85BC
:10343000C8010E943B1AF8012381277F2383E4E01F
:103440000C944D20AEE0B0E0E8E2FAE10C943320B9
:103450008DE08C838B899C899A838983AE01495E38
:103460005F4F6D897E89CE0101960E94A01D2E9628
:10347000E2E00C944F20ABE0B0E0E1E4FAE10C9420
:1034800023207C013B018A01FC0117821682838183
:1034900081FFC8C1CE0101965C01F7019381F30160
:1034A00093FD859193FF81913F01882309F453C1D6
:1034B000853239F493FD859193FF81913F018532E7
:1034C00029F4B70190E00E94CF1EE7CF912C212C68
:1034D000312CFFE1F31538F08B3211F190F480328A
:1034E00009F1833229F137FC3CC020ED280F2A3046
:1034F00050F536FE20C08AE0989E200D1124922EB1
:1035000006C08D3291F0803371F7689430F8F30182
:1035100093FD859193FF81913F018111DACF21C005
:10352000689431F8689432F8F2CF689433F8EFCFAA
:10353000689434F8ECCFEAE02E9E200D1124222E60
:10354000689435F8E4CF8E3229F436FC04C16894CF
:1035500036F8DDCF8C3619F4689437F8D8CF883632
:10356000B1F2982F9F7D95549330E0F08336A1F10E
:103570008337C1F1833509F063C02801F2E04F0EB3
:10358000511CF801C080D180692D70E036FC02C06A
:103590006FEF7FEFC6010E94B91E4C01689437F8A7
:1035A00082010AC00C5F1F4FFFE3F98388248394D4
:1035B000912C6501E89437F833FE2DC0522C81140C
:1035C000910471F5552009F468CFB70180E290E0CD
:1035D0000E94CF1E5A94F6CFF801808189830E5F36
:1035E0001F4FE4CF2801F2E04F0E511CF801C080BC
:1035F000D180692D70E036FC02C06FEF7FEFC6010D
:103600000E94C41E4C018201D5CFB70180E290E038
:103610000E94CF1E2A942814190409F0B0F7CECFC7
:10362000F60137FC859137FE81916F01B70190E07B
:103630000E94CF1E51105A94F1E08F1A9108BFCF0B
:10364000843619F0893609F077C0F80137FE6BC06F
:1036500060817181828193810C5F1F4FF32DFF7612
:103660003F2E97FF09C090958095709561957F4F8B
:103670008F4F9F4F689437F82AE030E0A5010E94F1
:10368000171FC82ECA188C2C432C36FE0CC0E89489
:1036900040F8C91440F434FE05C032FC03C0F32DD9
:1036A000FE7E4F2E892C44FE95C0FE01EC0DF11DCF
:1036B0008081803309F087C0242D297E422E842DFD
:1036C0008870582E43FC95C040FE8FC09C2C8214FD
:1036D00018F42C0C922C981844FE91C0B70180E38A
:1036E00090E00E94CF1E42FE09C088E790E041FEB4
:1036F00002C088E590E0B7010E94CF1EC91408F40B
:103700008AC0CA94D12C9FEFC91AD90ACA0CDB1CF3
:10371000F60182916F01B70190E00E94CF1EAC14B8
:10372000BD04B1F74FCF60817181072E000C880B6B
:10373000990B0E5F1F4F92CFD32CE894D4F82AE058
:1037400030E0853739F1232D297FD22E8F3601F1D4
:1037500048F48835A9F0F701868197812B96E2E13C
:103760000C943F20803749F08837A9F7D4FE02C077
:103770006894D2F820E130E00DC06894D4F8F6CF18
:1037800034FE03C0822F8660D82E20E132E002C0D2
:1037900028E030E0F801D7FE0FC06081718182819E
:1037A00093810C5F1F4FA5010E94171FC82ECA18D6
:1037B0003D2CE89437F867CF6081718190E080E01C
:1037C0000E5F1F4FF0CF42FC02C0839478CF8394EA
:1037D000839475CF842D867809F471CFF6CFB70125
:1037E00080E290E00E94CF1E83948214C0F3512C9B
:1037F00073CF522C5818821408F46ECFF8CF842D52
:10380000867809F47BCF8BE241FE80E247FC8DE2B3
:10381000B70190E071CFB70180E390E00E94CF1E26
:103820009A946CCF8FEF9FEF99CF20FD09C0FC01D8
:1038300023FD05C022FF02C073836283518340834E
:10384000089544FD17C046FD1DC0DB01FC01AA0F11
:10385000BB1FEE1FFF1F1094D1F76A0F7B1F8E1F37
:103860009F1F660F771F881F991F620F711D811D93
:10387000911D089533E0660F771F881F991F3150FF
:10388000D1F7F3CF34E0F7CF0F931F93CF93DF93AC
:103890008C01C8010E94CB19EC0197FD08C00E9461
:1038A000A51E892BB1F7B801CE010E94FF1ECE01E3
:1038B000DF91CF911F910F9108958F929F92AF92B8
:1038C000BF92EF92FF920F931F93CF93DF938C01E0
:1038D000D62F7A01B22E0E94CB199C0133272B32AE
:1038E000310529F02D323105A9F46894B7F8D1508B
:1038F00061F480E0DF91CF911F910F91FF90EF90E5
:10390000BF90AF909F908F900895C8010E94CB19EF
:1039100097FDEFCFCB2DCD7F2B2D2073F9F4803386
:10392000E9F4AA24AA94AD0E89F0C8010E94CB192B
:1039300097FD0CC0282F2F7D283561F4C264D2502A
:1039400029F0C8010E94CB1997FF08C0812C912C47
:1039500054011BC0B6FE2BC0C260DA2D812C912C05
:10396000540120ED280F283028F1C4FD09C02A3069
:1039700008F1C6FF05C02F7D3FEE320F3630C8F08C
:10398000B8010E94FF1EC1FFB4CFC7FF08C0B094AA
:10399000A09490948094811C911CA11CB11C2C2F8C
:1039A000B501A401C7010E94151C81E0A3CFC2612B
:1039B000D4CF27504C2FC501B4010E94211C4B01CC
:1039C0005C01C260D15009F3C8010E94CB1997FF76
:1039D000C8CFD9CFA0E2B0E0E0EFFCE10C94282002
:1039E0005C01962E7A01CE0101966C0180E2F6010F
:1039F00011928A95E9F7F501B381890130E020E061
:103A0000712C812CA0E041E050E0F801B3FD8591DC
:103A1000B3FF8191982F8F01811107C010E000E062
:103A2000C801A096EDE00C9444208E3519F42115C0
:103A3000310541F1A21713064CF48D3549F18D3251
:103A400029F4811006C0882483941DC0882009F4BD
:103A500064C0E92FE695E695E695EC0DFD2DF11D88
:103A6000892F8770BA0101C0660F8A95EAF78081B5
:103A7000682B6083791651F0971510F49F5FE9CF9A
:103A80009150E7CFA1E02F5F3F4FBFCF812CFBCFFD
:103A9000882019F08E8180628E83AA2359F0F60166
:103AA0009E012F5D3F4F8081809580833196E21784
:103AB000F307C9F788248394C5010E94CB1997FDA9
:103AC00016C0E82FE695E695E695EC0DFD2DF11D67
:103AD000208130E0AC014770552702C0359527950D
:103AE0004A95E2F720FD06C0B5010E94FF1E88201E
:103AF00069F094CFE114F10429F0F7018083C70144
:103B000001967C019A94812C9110D6CFE114F10496
:103B100009F486CFF701108283CFE82FE695E6956A
:103B2000E695EC0DFD2DF11D982F9770BA0101C09F
:103B3000660F9A95EAF79081692B6083782EA3CF60
:103B4000B0E0A0E0E6EAFDE10C9426206C01EB0178
:103B50005A01FC0117821682512CF601E380FE0106
:103B6000E3FC8591E3FE8191182FEF018823E9F0B2
:103B700090E00E94A51E892B21F0C6010E94441CE2
:103B8000ECCF153241F4FE01E3FC1591E3FE1191F7
:103B9000EF01153269F4C6010E94CB1997FD8EC062
:103BA0001817D9F2B6010E94FF1E852D90E08AC039
:103BB00000E01A3231F4E3FC1591E3FE1191EF01BC
:103BC00001E0F12C20ED210F2A3048F101FF37C030
:103BD000FF2059F31836B1F11C3609F43DC011230A
:103BE00021F3612F70E08CEA90E00E94AE1E892BD9
:103BF000E1F2912C812C00FD06C0F50180809180BE
:103C0000C50102965C011E3679F5F60146815781A1
:103C100070E060E0202FC4010E94151C9ECF02605E
:103C20006F2D70E090E080E040E20E94211CF62EB3
:103C3000FE01E3FC1591E3FE1191EF01C3CFFF24D8
:103C4000FA94C8CFFE01E3FC1591E3FE1191EF0158
:103C5000183609F0C4CF08600460FE01E3FC15913A
:103C6000E3FE1191EF01BBCF1336C1F401FD02C099
:103C7000FF24F394C6010E94CB1997FD1FC0811445
:103C8000910429F0F4018083C40101964C01FA9457
:103C9000F110F0CF00FD61CF53945FCF1B35B9F425
:103CA0009E01A4016F2DC6010E94EA1CEC01892B24
:103CB00089F7F6018381807309F477CF8FEF9FEF47
:103CC000511073CFCDB7DEB7EFE00C944220C601A0
:103CD0000E94441C97FDF2CF1F36A9F130F4143630
:103CE00041F0193639F0006405C01337B9F01537C3
:103CF000D1F70062202FA4016F2DC6010E945D1C28
:103D00008111C8CFD6CF8114910429F0F4016082CB
:103D1000C40101964C01FA94FF2071F0C6010E9483
:103D2000CB193C0197FD08C00E94A51E892B59F3B1
:103D3000B601C3010E94FF1E8114910409F4AACFA9
:103D4000F4011082A7CF0061D5CF91110C94991F77
:103D5000803219F089508550C8F70895FC0105900C
:103D6000061621F00020D9F7C00108953197CF0140
:103D70000895FC010590615070400110D8F78095BE
:103D800090958E0F9F1F0895FC0161507040019027
:103D90000110D8F7809590958E0F9F1F08950F936F
:103DA0001F93CF93DF93182F092FEB018B8181FD98
:103DB00009C01FEF0FEF812F902FDF91CF911F913F
:103DC0000F91089582FF14C02E813F818C819D81C7
:103DD000281739073CF4E881F981CF0101969983CE
:103DE000888310838E819F8101969F838E83E3CF8A
:103DF000E885F985812F0995892BA1F3DACFFB019D
:103E0000238120FF11C026FD0FC08F3F980771F05E
:103E100082832F7D206423832681378121503109BD
:103E200037832683992708958FEF9FEF0895FA012E
:103E3000AA27283051F1203181F1E8946F936E7FE9
:103E40006E5F7F4F8F4F9F4FAF4FB1E03ED0B4E0DA
:103E50003CD0670F781F891F9A1FA11D680F791F1B
:103E60008A1F911DA11D6A0F711D811D911DA11D2C
:103E700020D009F468943F912AE0269F112430193C
:103E8000305D3193DEF6CF010895462F4770405DD7
:103E90004193B3E00FD0C9F7F6CF462F4F70405D86
:103EA0004A3318F0495D31FD4052419302D0A9F7E1
:103EB000EACFB4E0A6959795879577956795BA95DB
:103EC000C9F700976105710508959B01AC010A2EA1
:103ED00006945795479537952795BA95C9F7620F78
:103EE000731F841F951FA01D0895990F0008550F7B
:103EF000AA0BE0E8FEEF16161706E807F907C0F070
:103F000012161306E407F50798F0621B730B840B77
:103F1000950B39F40A2661F0232B242B252B21F451
:103F200008950A2609F4A140A6958FEF811D811DF1
:103F3000089599278827089597F99F6780E870E08A
:103F400060E008959FEF80EC089500240A9416160F
:103F5000170618060906089500240A941216130677
:103F6000140605060895092E0394000C11F4882305
:103F700052F0BB0F40F4BF2B11F460FF04C06F5F21
:103F80007F4F8F4F9F4F089557FD9058440F551FF7
:103F900059F05F3F71F04795880F97FB991F61F0CB
:103FA0009F3F79F087950895121613061406551F42
:103FB000F2CF4695F1DF08C0161617061806991FAE
:103FC000F1CF86957105610508940895E894BB27A3
:103FD00066277727CB0197F90895F999FECF92BD0F
:103FE00081BDF89A992780B50895A8E1B0E042E034
:103FF00050E00C941520262FF999FECF92BD81BD7B
:10400000F89A019700B4021639F01FBA20BD0FB616
:10401000F894FA9AF99A0FBE08950196272F0E94F4
:10402000FC1F0C94FB1FDC01CB01FC01F999FECFB6
:1040300006C0F2BDE1BDF89A319600B40D92415030
:104040005040B8F708952F923F924F925F926F922F
:104050007F928F929F92AF92BF92CF92DF92EF9218
:10406000FF920F931F93CF93DF93CDB7DEB7CA1B99
:10407000DB0B0FB6F894DEBF0FBECDBF09942A88C4
:10408000398848885F846E847D848C849B84AA846C
:10409000B984C884DF80EE80FD800C811B81AA81F9
:1040A000B981CE0FD11D0FB6F894DEBF0FBECDBFC4
:1040B000ED010895EE0FFF1F0590F491E02D099496
:1040C0005058BB27AA270E9478200C94B31F0E9447
:1040D000A51F38F00E94AC1F20F039F49F3F19F45F
:1040E00026F40C94A21F0EF4E095E7FB0C949C1FA1
:1040F000E92F0E94C41F58F3BA1762077307840799
:10410000950720F079F4A6F50C94E61F0EF4E095DF
:104110000B2EBA2FA02D0B01B90190010C01CA0181
:10412000A0011124FF27591B99F0593F50F4503E2C
:1041300068F11A16F040A22F232F342F4427585F1E
:10414000F3CF469537952795A795F0405395C9F736
:104150007EF41F16BA0B620B730B840BBAF09150EE
:10416000A1F0FF0FBB1F661F771F881FC2F70EC08D
:10417000BA0F621F731F841F48F487957795679560
:10418000B795F7959E3F08F0B0CF9395880F08F04C
:104190009927EE0F9795879508950E94751F08F44B
:0841A0008FEF0895F894FFCFA2
:1041A800010101FFFFFFFF00E1000000000000ED3A
:1041B80001ED01ED01ED01ED01011E232F23232D5A
:1041C800010A1601071601231E00C18081000000A4
:1041D800000000004C02C001EE0193021F02FD0125
:1041E8001102000000001F049A0348043D049204D1
:0441F8004C046E0401
:00000001FF
